:10000000000000000000FF003412F800F0FFF900CB
:100010005625B5005565B5005545B5003422EF00AD
:100020000000CB0000B0CB000180CC000080CD00F0
:100030009902CD00E715CD005187CC004F81CC004F
:10004000BF80CC00AF80CC004F00C8007180C800DA
:100050007080C800FCFF3D00010037000300C800AD
:100060000400E0000400E0004404E0003204E0008A
:100070001804E0000840E3000001E3000001E30091
:100080000404BE001503BE002504BE00868ABE001F
:1000900088A2BE000081A8000081A80001E1A8009C
:1000A00001E1A80002F0A4001988A4004988A40076
:1000B00016098000F6FF87002400040000000000FD
:1000C0000140FE00430605004346B10064000900FC
:1000D00035C4B300773424006400FA004F03BE0037
:1000E0004F04BE000080FE00CF087800CF237800C8
:1000F000CF317A0061727900615A790000A0FE0068
:10010000889FBE00049BB900349BB9007F1BB900D7
:100110006F1CB800041BB900449BB800411BB80019
:100120008381D8004399D8008101D100B161D10009
:100130000101FB004101FB003398AD003878AD00B0
:10014000CF09DE007118E1007F4CE100FFA17000D3
:10015000FFD173000288E700020CE6008209DE008E
:100160003208E1000208D90085A37100DFE37000C6
:1001700080A8EB0080C4EB000480FD0004C0FD00FB
:1001800009000100096001000A40FD00F3FF8F0033
:10019000A3918800A5309800E5889F000302FD0028
:1001A00010F0A0001074A00042F0A700E18A9700B0
:1001B000A132900089CA91009185C900E112CA005C
:1001C000931F7800E31F7A00B31F7800A3E0B70005
:1001D000A3E0BF00A3C0BF00282EC700280DC700A2
:1001E000300DC3004744C0004404F00047D0F00085
:0401F0004484C00083
:00000001FF
